:100000000C9472000C9493000C9493000C94930045
:100010000C9493000C9493000C9493000C94930014
:100020000C9493000C9493000C9493000C94930004
:100030000C9493000C9493000C9493000C949300F4
:100040000C9493000C9493000C9493000C949300E4
:100050000C94C1000C9493000C9493000C949300A6
:100060000C9493000C9493000C9493000C949300C4
:100070000C9493000C9493000C9493000C949300B4
:100080000C9493000C9493000C9493000C949300A4
:100090000C9493000C9493000C9493000C94930094
:1000A0000C9493000C9493000C9493000C94930084
:1000B0000C9493000C9493000C9493000C94930074
:1000C0000C9493000C9493000C9493000C94930064
:1000D0000C9493000C9493000C9493000C94930054
:1000E0000C94930011241FBECFEFD1E2DEBFCDBF31
:1000F00000E00CBF12E0A0E0B2E0E0E7FBE000E0CF
:100100000BBF02C007900D92AE31B107D9F714E0D2
:10011000AEE1B2E001C01D92A333B107E1F70E9446
:100120005A010C94B6050C94000010922304089513
:100130008CE38093240484E4809325048EE38093ED
:10014000260410922704109228041092290408957E
:1001500081E080936F0085E08093810085EE80933D
:10016000840089EF8093850084B1876084B92398E7
:100170002A98299880E58CBD8DB581608DBD7894D5
:1001800008951F920F920FB60F9211248F939F9391
:10019000909131049F5F90933104809132048F5F7E
:1001A00080933204843128F01092320481E08093ED
:1001B00030049A3060F0109231048091010188601F
:1001C0008093010180910201877F809302018091D9
:1001D0003104813051F480910101886080930101E4
:1001E0008091020188608093020185EE80938400F3
:1001F00089EF809385009F918F910F900FBE0F9094
:100200001F901895FF920F931F93CF93DF938C014C
:10021000F62E9A01C1E2D2E0A0E0B0E0FD01E0508C
:10022000FE4F80818883FD01EA5FFD4F80818E83D0
:1002300011962196A630B10589F788E080932D02AA
:1002400010922E02AFE2B2E0ECE0F2E089E0019021
:100250000D928150E1F71092310281E180933802D2
:10026000CBE3D2E0A0E0B0E0FD01EB5EFD4F80818A
:100270008C83FD01E75EFD4F808189931196A43048
:10028000B10591F730934302209344022093450235
:10029000109247021092490210924A0281E292E0C3
:1002A000B8014F2D0E942705DF91CF911F910F912B
:1002B000FF90089510923104109232040E94A80019
:1002C00080E092E00E94B10288EC90E020E931E009
:1002D000F9013197F1F70197D9F780E092E065E1F4
:1002E00072E00E94A2048FEF809307011092080130
:1002F00080BB11BA80930A0110920B018AB91BB816
:1003000087B918B880913004813021F41092230409
:100310001092300484EF91E061E272E00E94B60333
:10032000BC0190932F0480932E04009759F381E22F
:1003300092E00E94C204882339F081E292E0609149
:100340002E040E948E05DECF81E292E060912E04A1
:100350000E94DD048823B1F280913802813059F483
:1003600080914302883071F681E292E060912E0420
:100370000E947105C7CF813129F690E080914B0230
:100380008C3309F491E020E080914C02843409F42C
:1003900021E09223292F30E040E050E080914D028F
:1003A0008E3311F441E050E024233523232B09F44C
:1003B000A9CF80914E0280930B0180914F0281BBA7
:1003C000809150028BB98091510288B9809152027C
:1003D0008093080197CF2898962F9F71982B9EBDE8
:1003E0000DB407FEFDCF1EBC0DB407FEFDCF67FFA9
:1003F00004C01EBC0DB407FEFDCF289A8EB508952B
:1004000028986F71682B6EBD0DB407FEFDCF4EBDF1
:100410000DB407FEFDCF289A0895AC01FB01289882
:100420008AE38EBD0DB407FEFDCF9A01DF0108C03F
:100430001EBC0DB407FEFDCF215030408EB58D930C
:1004400021153105A9F7E40FF51F1082289A0895A8
:100450009C01FB0128988AE78EBD0DB407FEFDCFF5
:1004600008C080818EBD0DB407FEFDCF2150304005
:10047000319621153105A9F7289A08951F93CF9336
:10048000DF93182FC82FD0E0C076D070809116046B
:1004900090E0C817D90791F080EA6FE143E00E942D
:1004A000000285E0D595C7958A95E1F780E86FE170
:1004B0004C2F0E940002107610931604DF91CF910A
:1004C0001F9108951F93182F0E943E0280E0612F14
:1004D0000E94EB011F9108950F931F93182F062F71
:1004E0000E943E0280E4612F402F0E9400021F9173
:1004F0000F910895682F84ED0E946C0282ED61E0F7
:100500000E946C0288E28A95F1F78AEE0E946202EC
:1005100080FDFBCF82ED60E00E946C0289ED0E94BD
:10052000620290E008950F931F93982F162F072FC4
:1005300084ED692F0E946C0286ED612F0E946C028F
:1005400087ED602F0E946C0210E503C0812F8A9511
:10055000F1F78AEE0E94620280FDF8CF1F910F91A1
:1005600008950F931F938C01209A289A80E58CBDE3
:100570008DB581608DBD8FEF60E04FEF0E9400026E
:1005800088EC90E00197F1F780E090E190931804F7
:100590008093170488E060E00E946C0289E060E1CB
:1005A0000E946C028CE060E00E946C028DE060E1D1
:1005B0000E946C028AE06FEF0E946C028BE06FE198
:1005C0000E946C0284E060E00E946C0285E060E0C2
:1005D0000E946C0286E06FEF0E946C0287E06FE081
:1005E0000E946C0288E360EB0E946C0288E26FE379
:1005F0000E946C0289E260E30E946C0280E369EF72
:100600000E946C0281E367EF0E946C0280EC6DE057
:100610000E946C0281EC60E00E946C0280E862EC57
:1006200042E30E94000286EC62E10E946C0287ECC9
:100630006CE00E946C0284EC62E10E946C028AEC25
:1006400064EF0E946C028BEC61E00E946C0284EE0D
:10065000F80160810E946C0285EEF80161810E94C0
:100660006C0282EEF80162810E946C0283EEF80156
:1006700063810E946C0280EEF80164810E946C022A
:1006800081EEF80165810E946C0280E160E071E01A
:100690000E9493028FE10E943E0280E86BE140ECF1
:1006A0000E94000280E86FE144E00E94000284E1C1
:1006B00066E774E00E9493021F910F91089582E70C
:1006C0000E946202863008F08F5F089581E10E94E7
:1006D0007A0220E0892B09F021E0822F08950F9300
:1006E0001F93CF93DF93182F092FEB010FC08CE1DD
:1006F0000E94620281FF0AC080E86FE140E80E9428
:10070000000280EA6FE140E80E94000280E06FE1B1
:100710000E94EB0183FDEBCF82E060E00E946C025F
:1007200083E060E00E946C0286E0612F0E946C0210
:1007300087E0602F0E946C028AE760E040E00E9440
:100740000002812F902FBE010E94280280E86FE1F5
:1007500048E00E940002DF91CF911F910F91089510
:1007600089E30E946202811181E008958F929F9235
:10077000AF92BF92CF92DF92EF92FF920F931F93AF
:10078000CF93DF935C014B0189E30E9462028823CF
:1007900019F4C0E0D0E068C060911704109118040B
:1007A00080E00E946C0281E0612F0E946C028AE36B
:1007B00060E00E94EB01182F8AE360E00E94EB01E9
:1007C000382F20E0E12EFF24E22AF32AF0921804C9
:1007D000E09217048AE360E00E94EB01C82E8AE3EE
:1007E00060E00E94EB01D82E8AE360E00E94EB01FA
:1007F000082F10E08AE360E00E94EB01382F20E030
:10080000202B312B27FD03C0C0E0D0E011C0CC2D40
:10081000D0E09D2D80E0C82BD92BC50101972497EE
:100820008C179D0708F4EC01CE01B4010E940D0263
:1008300087010150104080E20030180738F08CE04A
:100840006FEF0E946C028DE06FE107C06E2D61506A
:100850008CE00E946C028DE0612F0E946C0280E8A7
:100860006EE140E40E940002CE01DF91CF911F9122
:100870000F91FF90EF90DF90CF90BF90AF909F903F
:100880008F900895EF92FF920F931F93CF93DF9372
:100890007C01413061F4685070409B0140E050E0C1
:1008A000685F7F4F2F5E3F4F4F4F5F4F12C0423008
:1008B00029F020E030E040E050E00BC0685070408C
:1008C0009B0140E050E0685F7F4F2A5F3F4F4F4FF2
:1008D0005F4FE7018B010FC0F881E0E0898190E074
:1008E0008E2B9F2BA0E0B0E0280F391F4A1F5B1F03
:1008F0002296025010400230110570F7FB01EE7F86
:10090000EE0DFF1D60FF0DC0908180E0AA2797FDCE
:10091000A095BA2F02C040705070280F391F4A1F8F
:100920005B1FCA01AA27BB270097A105B10599F74C
:1009300020953095C901DF91CF911F910F91FF90C4
:10094000EF900895AC0120E030E0F901E15EFB4F4B
:10095000DB01A20FB31F8C9180832F5F3F4F2430A8
:10096000310599F720E030E0F901E75EFB4FDA014D
:10097000A20FB31F8C9180832F5F3F4F263031052C
:1009800099F70895FC016932B0F08485883099F4B4
:100990008585863081F4DF019696EFE1F4E09C9145
:1009A0008081981741F41196319684E0E332F8077C
:1009B000B1F781E0089580E00895FC016A32B8F053
:1009C00084858830A1F48585882389F4DF01EFE1EF
:1009D000F4E05E969C915E978081981741F41196A1
:1009E000319684E0E332F807A1F781E0089580E0D2
:1009F0000895FC01A9E1B4E0868180838D9186830E
:100A0000319684E0AF31B807B9F70895CF93DF93FB
:100A1000EC01FC01AFE1B4E0828D868F8D91828F75
:100A2000319684E0A332B807B9F7188E198E80E4A6
:100A30008C8B1D8A8E8BCE010E9664E170E040E0B7
:100A40000E944204988F898FDF91CF910895DF92A1
:100A5000EF92FF920F931F93CF93DF93EC017B01F3
:100A6000142FD22E032F0E94F9041D3D08F01CED17
:100A7000188A145E198BCE010E9406058AA18CA3E8
:100A80008BA18DA30AA3DBA21EA214511FA3185091
:100A900018A619A6DE019A9620E030E007C0F701FB
:100AA000E20FF31F80818D932F5F3F4F2117B8F323
:100AB000012F10E0005F1F4FCE014A96B80141E0C0
:100AC0000E94420498A789A7C8014A96BE010E94C5
:100AD0006F03DF91CF911F910F91FF90EF90DF9007
:100AE00008951F93CF93DF93EC01162F0E94F90412
:100AF000CE010E9406051AA28CA1883F18F08DA194
:100B00008F5F8DA38CA1885F8CA3812F90E0BE01A5
:100B10000E946F03DF91CF911F910895CF93DF93D0
:100B2000EC010E94F9041C8A82E08D8BFE01A9E190
:100B3000B4E0868980A38D91868B319684E0AF31B5
:100B4000B807B9F7FE017C96AFE1B4E080818287F7
:100B50008D91819384E0A332B807C1F78AE290E0D7
:100B6000BE010E946F03DF91CF910895F894FFCFEB
:100B7000444F4D303132B827EB355D0B45000082D4
:0E0B80000000400020C0A8C865C0A801020007
:00000001FF
